{
  "contractName": "Country",
  "abi": [
    {
      "inputs": [
        {
          "internalType": "string",
          "name": "_countryHash",
          "type": "string"
        }
      ],
      "name": "set",
      "outputs": [],
      "stateMutability": "nonpayable",
      "type": "function"
    },
    {
      "inputs": [],
      "name": "getAllByAddress",
      "outputs": [
        {
          "internalType": "string[]",
          "name": "",
          "type": "string[]"
        }
      ],
      "stateMutability": "view",
      "type": "function"
    },
    {
      "inputs": [],
      "name": "getAll",
      "outputs": [
        {
          "internalType": "string[]",
          "name": "",
          "type": "string[]"
        }
      ],
      "stateMutability": "view",
      "type": "function"
    }
  ],
  "bytecode": "0x608060405234801561000f575f80fd5b5061090f8061001d5f395ff3fe608060405234801561000f575f80fd5b506004361061003f575f3560e01c80634ed3885e1461004357806353ed51431461005f578063a86978ed1461007d575b5f80fd5b61005d6004803603810190610058919061046b565b61009b565b005b61006761013c565b60405161007491906105e7565b60405180910390f35b610085610210565b60405161009291906105e7565b60405180910390f35b5f803373ffffffffffffffffffffffffffffffffffffffff1673ffffffffffffffffffffffffffffffffffffffff1681526020019081526020015f2081908060018154018082558091505060019003905f5260205f20015f909190919091509081610106919061080a565b50600181908060018154018082558091505060019003905f5260205f20015f909190919091509081610138919061080a565b5050565b60606001805480602002602001604051908101604052809291908181526020015f905b82821015610207578382905f5260205f2001805461017c90610634565b80601f01602080910402602001604051908101604052809291908181526020018280546101a890610634565b80156101f35780601f106101ca576101008083540402835291602001916101f3565b820191905f5260205f20905b8154815290600101906020018083116101d657829003601f168201915b50505050508152602001906001019061015f565b50505050905090565b60605f803373ffffffffffffffffffffffffffffffffffffffff1673ffffffffffffffffffffffffffffffffffffffff1681526020019081526020015f20805480602002602001604051908101604052809291908181526020015f905b82821015610315578382905f5260205f2001805461028a90610634565b80601f01602080910402602001604051908101604052809291908181526020018280546102b690610634565b80156103015780601f106102d857610100808354040283529160200191610301565b820191905f5260205f20905b8154815290600101906020018083116102e457829003601f168201915b50505050508152602001906001019061026d565b50505050905090565b5f604051905090565b5f80fd5b5f80fd5b5f80fd5b5f80fd5b5f601f19601f8301169050919050565b7f4e487b71000000000000000000000000000000000000000000000000000000005f52604160045260245ffd5b61037d82610337565b810181811067ffffffffffffffff8211171561039c5761039b610347565b5b80604052505050565b5f6103ae61031e565b90506103ba8282610374565b919050565b5f67ffffffffffffffff8211156103d9576103d8610347565b5b6103e282610337565b9050602081019050919050565b828183375f83830152505050565b5f61040f61040a846103bf565b6103a5565b90508281526020810184848401111561042b5761042a610333565b5b6104368482856103ef565b509392505050565b5f82601f8301126104525761045161032f565b5b81356104628482602086016103fd565b91505092915050565b5f602082840312156104805761047f610327565b5b5f82013567ffffffffffffffff81111561049d5761049c61032b565b5b6104a98482850161043e565b91505092915050565b5f81519050919050565b5f82825260208201905092915050565b5f819050602082019050919050565b5f81519050919050565b5f82825260208201905092915050565b5f5b838110156105125780820151818401526020810190506104f7565b5f8484015250505050565b5f610527826104db565b61053181856104e5565b93506105418185602086016104f5565b61054a81610337565b840191505092915050565b5f610560838361051d565b905092915050565b5f602082019050919050565b5f61057e826104b2565b61058881856104bc565b93508360208202850161059a856104cc565b805f5b858110156105d557848403895281516105b68582610555565b94506105c183610568565b925060208a0199505060018101905061059d565b50829750879550505050505092915050565b5f6020820190508181035f8301526105ff8184610574565b905092915050565b7f4e487b71000000000000000000000000000000000000000000000000000000005f52602260045260245ffd5b5f600282049050600182168061064b57607f821691505b60208210810361065e5761065d610607565b5b50919050565b5f819050815f5260205f209050919050565b5f6020601f8301049050919050565b5f82821b905092915050565b5f600883026106c07fffffffffffffffffffffffffffffffffffffffffffffffffffffffffffffffff82610685565b6106ca8683610685565b95508019841693508086168417925050509392505050565b5f819050919050565b5f819050919050565b5f61070e610709610704846106e2565b6106eb565b6106e2565b9050919050565b5f819050919050565b610727836106f4565b61073b61073382610715565b848454610691565b825550505050565b5f90565b61074f610743565b61075a81848461071e565b505050565b5b8181101561077d576107725f82610747565b600181019050610760565b5050565b601f8211156107c25761079381610664565b61079c84610676565b810160208510156107ab578190505b6107bf6107b785610676565b83018261075f565b50505b505050565b5f82821c905092915050565b5f6107e25f19846008026107c7565b1980831691505092915050565b5f6107fa83836107d3565b9150826002028217905092915050565b610813826104db565b67ffffffffffffffff81111561082c5761082b610347565b5b6108368254610634565b610841828285610781565b5f60209050601f831160018114610872575f8415610860578287015190505b61086a85826107ef565b8655506108d1565b601f19841661088086610664565b5f5b828110156108a757848901518255600182019150602085019450602081019050610882565b868310156108c457848901516108c0601f8916826107d3565b8355505b6001600288020188555050505b50505050505056fea2646970667358221220f02386afbdca34198349b536437fee27fe17f336234f715b4bee52b488817ce164736f6c63430008140033",
  "immutableReferences": {},
  "source": "// SPDX-License-Identifier: MIT\npragma solidity ^0.8.20;\n\ncontract Meme {\n    // memeHash\n    mapping(address => string[]) private memeHashes;\n\n    // memeHash\n    string[] private allMemeHashes;\n\n    // memeHash\n    function set(string memory _memeHash) public {\n        // \n        memeHashes[msg.sender].push(_memeHash);\n\n        // \n        allMemeHashes.push(_memeHash);\n    }\n\n    // memeHash\n    function getAllByAddress() public view returns (string[] memory) {\n        return memeHashes[msg.sender];\n    }\n\n    // memeHash\n    function getAll() public view returns (string[] memory) {\n        return allMemeHashes;\n    }\n}",
  "sourcePath": "/home/tanemura/dapps1/sloppy2/client/src/contracts/Meme.sol",
  "compiler": {
    "name": "solc",
    "version": "0.8.20+commit.a1b79de6.Emscripten.clang"
  },
  "schemaVersion": "3.4.16",
  "updatedAt": "2025-01-19T21:26:50.399Z",
  "devdoc": {
    "kind": "dev",
    "methods": {},
    "version": 1
  },
  "userdoc": {
    "kind": "user",
    "methods": {},
    "version": 1
  }
}